:040000008A15002835
:10000800FF00030E83018316BD000A08BE008A01A3
:1000180070088312A4007B08A3007C08A2007D0856
:10002800A100B23081006A08013A031D2D28081585
:100038000630FB001330FC00AD30FD00FD0B22281C
:10004800FC0B2228FB0B222800000000FB3088054F
:10005800EA01FB308B052408F0002308FB00220886
:10006800FC002108FD0083163E088A003D0E83002F
:06007800FF0E7F0E0900DF
:0E007E00F201F101F001F801F3010030080079
:08008C00FA1FF2130030080016
:100094007B15FB1F54280130F300F201F101F0013C
:0800A400FA0DF20CFF30080018
:1000AC00A0017208031D6B287108F2007008F100A2
:1000BC00F001A0157208031D6B287108F200F10104
:1000CC00A01120167208031979282008F302031DC9
:1000DC00031C7D280310F21B8128F00DF10DF20D8D
:1000EC00F30B71287D280130FC003F20842802305E
:0E00FC00FC004A2084280430FC004620080046
:06010A00FB15FF300800A8
:10011000FB14FB1F9228FF30F300F200F100F00007
:08012000FA0DF20CFF3008009B
:100128007B14FB1F9F28F201FA1FFF30F200F10039
:0A013800F000FA0DF20CFF30080091
:06014200000000000800AF
:100148000F3083120313FC004730FD00FD0BAA2873
:0A015800FC0BAA28000000000800BC
:0E016200213083120313FD00FD0BB5280800A9
:10017000831203137008F8007108F000F101F20116
:10018000F301FB01FC019630F300FA017008F10065
:0C0190007808F000F801F2015620080089
:10019C00831203137408003A031DE9287508003A0A
:1001AC00031DE9287608003A031DE9287708003A70
:1001BC00031DE928FF30F000FF30F1007F30F20022
:1001CC00FF30F3008429831203137708031978296D
:1001DC00730803197B29720876068039FA00F21726
:1001EC00F617A0017208F8007108FC007008FD00F9
:1001FC007408FD027508031C750FFC027608031CBD
:10020C00760FF802F801FC01FD01031C1429031000
:10021C00F20CF10CF00CF80C0130A0007708F30292
:10022C00031C1E297E302007F30703187E2923297F
:10023C007E302007F307031C81291830FA07FD0DC7
:10024C00FC0DF80DF00DF10DF20DA00D7408F0027F
:10025C007508031C750FF1027608031C760FF20269
:10026C00760DA004201C3C297D1447297408F00746
:10027C0075080318750FF10776080318760AF2074C
:10028C007D10FA031F307A05031D25297B1B7D1C6D
:10029C006E290310F00DF10DF20DA00D7408F00293
:1002AC007508031C750FF1027608031C760FF20219
:1002BC00760D20040139FD070318FC0A0319F80A0E
:1002CC00031D6E29F80CFC0CFD0CF30A03197E2996
:1002DC00FA1FF8137808F2007C08F1007D08F00092
:1002EC000030832901308520832902303F20832967
:0E02FC0004308820832908304A2000000800C2
:10030A0083120313FB01FC01FA0173080319C429C0
:10031A00F2178E30F302F31B952903199529C72981
:10032A00F309F30A08307302031CAA29F300F10D3A
:10033A007208F100F20108307302031CAA29F10DB8
:10034A00F1017308031D0310B22973080319B229B6
:10035A000310F20CF10CF30BAD297B1B711CBC29A9
:10036A00031CBC29F10A0319F20AF21BD329FA1F4A
:10037A00D629F209F109F10A0319F20AD629F2017A
:10038A00F101D6297B14FB1FD929F201FA1FD929B9
:10039A00FF30F200F100FA0DF20CD9290130FC000D
:1003AA00DB290030FC00DB29FF30FC00FC080319C4
:0E03BA00DF2994207108F0007208F10008009D
:1003C80083160313D11BEB2983120613ED2983121D
:1003D80006178316511BF32983128612F5298312F7
:1003E80086168316D11AFB2983120612FD29831259
:1003F80006168316511A032A83128611052A8312B8
:1004080086156F18092A86140A2A86100615A1204F
:1004180006118316D119132A83120613152A83127B
:100428000617831651191B2A831286121D2A831256
:1004380086168316D118232A83120612252A8312B8
:100448000616831651182B2A831286112D2A831219
:1004580086156F18312A8614322A86100615A120AF
:0E04680006116F1C392AA4203A2AB120080080
:10047600831203136F1083164D08D100E4216F1405
:0204860008006C
:10048800831203138F018E0107170630FD00FD0B41
:100498004B2A0000BF308705871A532A502A1014A8
:1004A800871E572A542A10100F08F100F0010E0871
:1004B800F0040030F1047008ED007108EE00B82077
:1004C800AE30F4004730F5006B30F6008430F700AA
:1004D800CE2085217008ED007108EE00F00A03199E
:0C04E800F10A7008ED007108EE00080039
:1004F40083120313F801F9011030FC00710DF80D9B
:10050400F90D7408F8027508031C750FF902031835
:10051400922A7408F80775080318750FF907031071
:0A052400F00DF10DFC0B802A080019
:10052E0083160313CF01D0010230FC006C30FD00A6
:10053E00FD0B9F2AFC0B9F2A0000CF01D0014E0815
:10054E005002031DAC2A4D084F020318B82A03307F
:10055E00FD00FD0BB02A00000000CF0A0319D00ADF
:04056E00A62A0800B1
:100572008312031395019B01EF308805DF30880554
:0A058200BF3088057F3088050800AF
:10058C0083160313CB0105304B020318D42A4B08F6
:10059C004A07840020308000CB0AC92A4B084A073E
:1005AC0084008001CB034B084A07CC000A30F400CE
:1005BC00F5014808F0004908F1007A227808F000AB
:1005CC007908F1003030F00783164C08840070086D
:1005DC0080000A30F400F5014808F0004908F100E9
:1005EC007A2270088316C8007108C90000307106A1
:1005FC00031D022B00307006031D052B072BCB03AC
:04060C00D92A0800DF
:100610001A2B803083160313C8002D2BC030C8005E
:100620002D2B9430C8002D2BD430C8002D2B8030BA
:10063000C8002D2B831603134808013A0319092B10
:100640004808023A03190E2B4808033A0319112BE4
:100650004808043A0319142B172B4903F0004808E3
:10066000F0077008C8007008D100E4216F108316ED
:10067000CB014B084A07840000080319482B4B089C
:100680004A0784000008CD003B228316CB0A392B91
:0606900083126F14080044
:1006960044227008EB007108EC007108003C031D51
:1006A600562B7008133C03186E2B463095004130CC
:1006B6009B000630FC003030FD00FD0B602BFC0B70
:1006C600602B00000816DF30880508177F30880584
:1006D600F001F101752BB9220130EA000130F0007A
:0606E6000030F1000800E5
:1006EC0083160313C801C901CA01CB0100304906A6
:1006FC00031D822B00304806031DC52BCA01CB01FC
:10070C0080304B06F00080307002031D8F2B8C3034
:10071C004A020318C52BBB01BC0100303C02031D6F
:10072C00992B32303B020318B42B83128715831696
:10073C004A08CD004B08CE009722F730831287056C
:10074C001A30FC00F830FD00FD0BAA2BFC0BAA2B79
:10075C0000008316BB0A0319BC0A932B8312861F55
:10076C00BF2B0130EA0001308316C8000030C900ED
:10077C00C52B83160A30CA070318CB0A862B003008
:10078C004906031DCB2B01304806031DD22B4A080A
:10079C00F0004B08F100D62B9430F0000130F10042
:0207AC00080043
:0E07AE00831603132E088A002D08820008000F
:1007BC00C730831203131F05F20083163F08F000A5
:1007CC00F00D7010F00D7010F00D701070087204B8
:1007DC0083129F001F151F1DF42BF12B1E08F10017
:0E07EC00F00183161E08F0040030F10408002E
:1007FA004B308312031395004B309B000230FB00F1
:10080A000430FC00BA30FD00FD0B092CFC0B092C4E
:10081A00FB0B092C00000816DF308805BF3088055D
:10082A0088170230FB008630FC009930FD00FD0B72
:10083A001C2CFC0B1C2CFB0B1C2CB9220630FB00BD
:10084A001330FC00AD30FD00FD0B292CFC0B292CCC
:0A085A00FB0B292C00000000080031
:100864004B308312031395004B309B000230FB0086
:100874000430FC00BA30FD00FD0B3E2CFC0B3E2C7A
:10088400FB0B3E2C0000EF308805881608177F30DC
:1008940088050230FB008630FC009930FD00FD0B1A
:1008A400512CFC0B512CFB0B512CB9220630FB00B4
:1008B4001330FC00AD30FD00FD0B5E2CFC0B5E2CF8
:0A08C400FB0B5E2C00000000080092
:1008CE0083160313C401C5013F08C6004008C700C4
:1008DE0080304006F00080307002031D782C00300E
:1008EE003F020318862C0130C4000030C5003F08BB
:1008FE00003CC6004008031C013EC701C702460863
:10090E00C8004708C9004108CA00C6220630C20006
:10091E000030C3004308003C031D972C4208003CE6
:10092E000318B22C42084107F20001304202F000D7
:10093E000030031C013E4302F100700841078400A1
:10094E000008F00072088400700880000130C202B6
:10095E00031CC303912C41088400203080004408FE
:10096E0045040319D02CC201C3014208410784007B
:10097E000008203A031DC72CC20A0319C30ABC2C57
:10098E000130C202031CC3034208410784002D300C
:04099E0080000800CD
:1009A20083120313FB01730803190E2D7208FA0058
:1009B200F2178E30F302F31F112DF309F30A0830F8
:1009C2007302031CF42CF300F10D7208F100F20122
:1009D20008307302031CF42CF300F10DF1017308CB
:1009E200031D0310FC2C73080319FC2C0310F20CDA
:1009F200F10CF30BF72C7B1B711C062D031C062D2F
:100A0200F10A0319F20AF21B1D2DFA1F202DF20919
:100A1200F109F10A0319F20A202DF201F101202D48
:100A22007B14FB1F232DF201FA1F232DFF30F2004E
:100A3200F100FA0DF20C232D0130FC00252D0030BF
:100A4200FC00252DFF30FC00FC080319292D942001
:0A0A52007108F0007208F1000800BE
:100A5C0083120313FB017308031D77080319852DFB
:100A6C0072087606FA007708F3077E30031C422DD5
:100A7C00F3020318882D452DF302031C8B2D7208ED
:100A8C00F8007108FC007008FD00F817F617031049
:100A9C00F201F101F0011830A0007D1C5F2D7408EB
:100AAC00F00775080318750FF10776080318760F11
:100ABC00F207F20CF10CF00CF80CFC0CFD0C031012
:100ACC00A00B532DF21B6F2DF80DF00DF10DF20D47
:100ADC00F3037B1B701C812DF81F812DF00A031969
:100AEC00F10A0319F20A031D812DF20CF10CF00C22
:100AFC00F30A0319882DFA1FF21300308D2D0130E3
:100B0C003F208D2D023088208D2D04304A2000008E
:020B1C000800CF
:100B1E0083120313FA017308031D7A147708031D59
:100B2E00FA147A080319DB2D033A0319A62D7A1845
:100B3E00A32DF61FD92DD72DF21FD72DD92D720823
:100B4E008039FA00F21376088039F6137A06031903
:100B5E00B42D7A080319D72DD92D770873020319EE
:100B6E00BB2D031CCF2DD32D760872020319C22D77
:100B7E00031CCF2DD32D750871020319C92D031C2B
:100B8E00CF2DD32D740870020319DB2D0318D32D2E
:100B9E00FA080319D92DD72DFA080319D72DD92DF7
:100BAE0003140800031008000314031508000800BE
:100BBE004130831203139F00C03083169F0008003C
:100BCE00D7238A110A128000840AAD0A0319AE0ACD
:080BDE00F003031DE72D0800E0
:100BE6008316031306118610861106128612061343
:100BF6008312061186100613861206128611A42089
:100C0600A420A420061686150615A1200611A420E8
:100C16000615A1200611A4200615A1200611A42060
:100C260086110615A1200611A4200615A12006117D
:100C3600061206170615A1200611A420061386150E
:100C46000615A120061186110615A1200611A4205D
:100C56000615A120061186150615A1200611A42049
:100C660086110615A1200611061786160616861584
:0C0C76000615A1200611A4206F14080030
:100C820083160313BF01C001C101C2010030400637
:100C9200031D4D2E00303F06031D902EC101C201DF
:100CA20080304206F00080307002031D5A2E8C30D4
:100CB20041020318902EBB01BC0100303C02031D0F
:100CC200642E32303B0203187F2E831207168316DE
:100CD2004108CD004208CE009722EF3083128705EB
:100CE2001A30FC00F830FD00FD0B752EFC0B752E42
:100CF20000008316BB0A0319BC0A5E2E8312081C6D
:100D02008A2E0130EA0001308316BF000030C00095
:100D1200902E83160A30C1070318C20A512E0030E2
:100D22004006031D962E01303F06031D9D2E4108ED
:100D3200F0004208F100A12E9430F0000130F100E1
:020D42000800A7
:100D440044228030F200803071067202031DAC2E02
:100D54007008133C0318B42E4B237008EB00710881
:100D6400EC00A22EB9221F30FB007130FC001E30B3
:100D7400FD00FD0BBB2EFC0BBB2EFB0BBB2E0000A2
:100D84007623700871040319472F0130D100E42140
:100D94000230FB000430FC00BA30FD00FD0BD02E05
:100DA400FC0BD02EFB0BD02E000001308316C800A4
:100DB4000130C9002F30CA00082302308316C8004E
:100DC4000130C900A030CA0008230B30FB002630D4
:100DD400FC005D30FD00FD0BED2EFC0BED2EFB0B3E
:100DE400ED2E000000000130EA0088151F30FB00E2
:100DF4007130FC001E30FD00FD0BFE2EFC0BFE2EA0
:100E0400FB0BFE2E0000F730880501308316D1005D
:100E1400E4210230FB000430FC00BA30FD00FD0B7D
:100E2400112FFC0B112FFB0B112F00000130831627
:100E3400C8000130C9005D30CA000823023083169F
:100E4400C8000130C9005330CA0008230B30FB002E
:100E54002630FC005D30FD00FD0B2E2FFC0B2E2FE9
:100E6400FB0B2E2F000000002930FB009630FC0005
:100E74007F30FD00FD0B3C2FFC0B3C2FFB0B3C2F6C
:0C0E84000130F0000030F100472F0800A2
:100E90004B308312031395004B309B000630FC004F
:100EA0003030FD00FD0B522FFC0B522F0000EF30B5
:100EB0008805881608177F3088050930FB001E302A
:100EC000FC00E430FD00FD0B632FFC0B632FFB0BDC
:080ED000632F0000B9220800A5
:100ED80083160313BB01BC0100303C02031D762FAF
:100EE80032303B020318922F831287153C30831649
:100EF800CD000030CE009722F730831287052F30BF
:100F0800FC00BF30FD00FD0B872FFC0B872F000076
:0E0F180000008316BB0A0319BC0A702F0800E4
:100F260083160313BB01BC0100303C02031D9D2F39
:100F360032303B020318B92F831207163C30831652
:100F4600CD000030CE009722EF30831287052F3078
:100F5600FC00BF30FD00FD0BAE2FFC0BAE2F0000DA
:0E0F660000008316BB0A0319BC0A972F08006F
:10100000E022B2308312031381000730831681007F
:10101000A0308B00103083129000073092000C300B
:1010200097000C309D00FA30831692000130850045
:101030008030860020308700013088008A11F32537
:101040008A150B30FB002630FC005D30FD00FD0BE7
:101050002728FC0B2728FB0B2728000000000C305A
:101060008316D1008A11E4218A150230FB00043076
:10107000FC00BA30FD00FD0B3B28FC0B3B28FB0BB2
:101080003B28000001308316D1008A11E4218A1523
:101090000230FB000430FC00BA30FD00FD0B4E288E
:1010A000FC0B4E28FB0B4E280000850186018701B2
:1010B00088018814EA010B30FB002630FC005D300B
:1010C000FD00FD0B6128FC0B6128FB0B6128000073
:1010D000000000305206031D6F2800305106031D2A
:1010E000132A01308316D1008A11E4218A150230B7
:1010F000FB000430FC00BA30FD00FD0B7D28FC0B2A
:101100007D28FB0B7D28000001308316C8000130CC
:10111000C9004430CA008A1108238A151530FB0023
:101120004B30FC00BE30FD00FD0B9428FC0B9428D6
:10113000FB0B942800008A1176238A15700883120D
:10114000C2007108C3007108013A031DA928943038
:101150007006031DC0280230FB000430FC00BA30CA
:10116000FD00FD0BB128FC0BB128FB0BB1280000E2
:101170008A1141268A1570088312BC007108BD00CF
:101180000230FB000430FC00BA30FD00FD0BC62825
:10119000FC0BC628FB0BC62800008A116C278A1599
:1011A0008A1193278A150230FB000430FC00BA3004
:1011B000FD00FD0BD928FC0BD928FB0BD92800001A
:1011C000003083124306031DE7283C304206031D0E
:1011D00001290B30FB002630FC005D30FD00FD0BCB
:1011E000EF28FC0BEF28FB0BEF28000000008A1112
:1011F000A2268A15831203137008BE007108BF006F
:10120000B42980304306F00080307002031D0A29A3
:101210003C304202031C24298030F00080303D061F
:101220007002031D15293C083B3C0318232980301C
:101230003D06F00080307002031D20298C303C02F6
:101240000318232924295B298316BB01BC018030A4
:1012500083120605F1007108003A031D4029003091
:1012600083163C06031D362932303B0603194029FC
:101270008A1132248A158316BB0A0319BC0A27294E
:101280008A11B9228A150B30FB002630FC005D3034
:10129000FD00FD0B4929FC0B4929FB0B49290000E6
:1012A00000008A11A2268A15831203137008BE005B
:1012B0007108BF00B4298030F0008030430670020E
:1012C000031D642942083C3C031872298030430600
:1012D000F00080307002031D6F298C304202031829
:1012E00072297E2980303D06F00080307002031D97
:1012F0007B293C303C02031C7E29B4298316BB01A8
:10130000BC01803083120605F1007108003A031D0C
:101310009A29003083163C06031D902932303B0683
:1013200003199A298A11FD238A158316BB0A03190A
:10133000BC0A81298A11B9228A150B30FB0026309C
:10134000FC005D30FD00FD0BA329FC0BA329FB0B6A
:10135000A329000000008A11A2268A158312031314
:101360007008BE007108BF0000303F06031DBA2997
:1013700001303E06031DC3290130EA000130D100CF
:101380000030D200132A8316BB01BC0103303C029B
:10139000031DCC29E8303B0203180F2A8A114B2386
:1013A0008A157008C0007108C10000307106031D65
:1013B000DB2901307006031D002A8A11B9228A1523
:1013C0000B30FB002630FC005D30FD00FD0BE629F4
:1013D000FC0BE629FB0BE629000000008A114827D8
:1013E0008A150B30FB002630FC005D30FD00FD0B44
:1013F000F729FC0BF729FB0BF729000000000F2A47
:101400000330FC009730FD00FD0B042AFC0B042A7E
:10141000000000008316BB0A0319BC0AC6298A1102
:10142000B9228A1569288A11DF258A150B30FB003D
:101430002630FC005D30FD00FD0B1C2AFC0B1C2A35
:10144000FB0B1C2A00000000BF018A11DE238A1555
:101450008A11B8208A1570088316AF007108B00091
:101460007208B1007308B200F630F4002830F500BD
:101470001C30F6008130F7008A112E258A1570087D
:101480008316B3007108B4007208B5007308B60083
:101490000030F4000030F5002030F6008230F70014
:1014A0008A11CE208A1570088316B7007108B8001B
:1014B0007208B9007308BA000230FB000430FC0067
:1014C000BA30FD00FD0B622AFC0B622AFB0B622A7C
:1014D00000003708F0003808F1003908F2003A0837
:1014E000F3008A11D1248A1570088316BF00710891
:1014F000C000A930C1008A1167248A150B30FB0097
:101500002630FC005D30FD00FD0B842AFC0B842A94
:10151000FB0B842A000000000130D1008A11E42175
:101520008A1501308316C8000130C9002530CA0071
:101530008A1108238A1502308316C8000130C900B9
:10154000A930CA008A1108238A150630FB0013301F
:10155000FC00AD30FD00FD0BAB2AFC0BAB2AFB0BF6
:10156000AB2A0000000083163708F4003808F500A5
:101570003908F6003A08F7000030F0000030F100BA
:101580000C30F2008530F3008A118F258A15013066
:1015900003180030F00070080319D02A0130EA0067
:0215A000D02A4F
:1015C00025308400453083120313F000BA308316AF
:1015D000AD000730AE008A11E7258A15A0308400DF
:1015E000093083120313F000D6308316AD000A30A1
:0A15F000AE008A11E7258A150800F5
:100F740052346F346F346D342034543465346D34EA
:040F84007034003491
:100F8800463449345234453420344634493447349D
:0A0F98004834543445345234003418
:040FA200943401344E
:040FA60000340034DF
:040FAA0000340034DB
:040FAE009434013442
:100FB2004634493452344534203446344934473473
:0A0FC20048345434453452340034EE
:040FCC0000340034B9
:100FD0005734613474346534723420344F344634B9
:040FE000463400345F
:100FE4004634493452344534203446344934473441
:0A0FF40048345434453452340034BC
:1015AC005734613474346534723420344F344E34CF
:0215BC000034F9
:02400E004A2F37
:00000001FF
